{
  "_format": "hh-sol-artifact-1",
  "contractName": "PromptVoting",
  "sourceName": "contracts/PromptVoting.sol",
  "abi": [
    {
      "anonymous": false,
      "inputs": [
        {
          "indexed": false,
          "internalType": "uint256",
          "name": "id",
          "type": "uint256"
        },
        {
          "indexed": false,
          "internalType": "string",
          "name": "content",
          "type": "string"
        },
        {
          "indexed": false,
          "internalType": "address",
          "name": "creator",
          "type": "address"
        }
      ],
      "name": "PromptCreated",
      "type": "event"
    },
    {
      "anonymous": false,
      "inputs": [
        {
          "indexed": false,
          "internalType": "uint256",
          "name": "id",
          "type": "uint256"
        },
        {
          "indexed": false,
          "internalType": "address",
          "name": "voter",
          "type": "address"
        }
      ],
      "name": "Voted",
      "type": "event"
    },
    {
      "inputs": [
        {
          "internalType": "string",
          "name": "_content",
          "type": "string"
        }
      ],
      "name": "createPrompt",
      "outputs": [],
      "stateMutability": "nonpayable",
      "type": "function"
    },
    {
      "inputs": [
        {
          "internalType": "uint256",
          "name": "_id",
          "type": "uint256"
        }
      ],
      "name": "getPrompt",
      "outputs": [
        {
          "components": [
            {
              "internalType": "uint256",
              "name": "id",
              "type": "uint256"
            },
            {
              "internalType": "string",
              "name": "content",
              "type": "string"
            },
            {
              "internalType": "uint256",
              "name": "votes",
              "type": "uint256"
            },
            {
              "internalType": "address",
              "name": "creator",
              "type": "address"
            }
          ],
          "internalType": "struct PromptVoting.Prompt",
          "name": "",
          "type": "tuple"
        }
      ],
      "stateMutability": "view",
      "type": "function"
    },
    {
      "inputs": [
        {
          "internalType": "uint256",
          "name": "",
          "type": "uint256"
        },
        {
          "internalType": "address",
          "name": "",
          "type": "address"
        }
      ],
      "name": "hasVoted",
      "outputs": [
        {
          "internalType": "bool",
          "name": "",
          "type": "bool"
        }
      ],
      "stateMutability": "view",
      "type": "function"
    },
    {
      "inputs": [],
      "name": "promptCount",
      "outputs": [
        {
          "internalType": "uint256",
          "name": "",
          "type": "uint256"
        }
      ],
      "stateMutability": "view",
      "type": "function"
    },
    {
      "inputs": [
        {
          "internalType": "uint256",
          "name": "",
          "type": "uint256"
        }
      ],
      "name": "prompts",
      "outputs": [
        {
          "internalType": "uint256",
          "name": "id",
          "type": "uint256"
        },
        {
          "internalType": "string",
          "name": "content",
          "type": "string"
        },
        {
          "internalType": "uint256",
          "name": "votes",
          "type": "uint256"
        },
        {
          "internalType": "address",
          "name": "creator",
          "type": "address"
        }
      ],
      "stateMutability": "view",
      "type": "function"
    },
    {
      "inputs": [
        {
          "internalType": "uint256",
          "name": "_id",
          "type": "uint256"
        }
      ],
      "name": "votePrompt",
      "outputs": [],
      "stateMutability": "nonpayable",
      "type": "function"
    }
  ],
  "bytecode": "0x6080604052348015600f57600080fd5b506110328061001f6000396000f3fe608060405234801561001057600080fd5b50600436106100625760003560e01c806324b265c4146100675780634385963214610083578063450468a8146100b3578063798337fe146100cf578063cf73cdd2146100ed578063d4cf9af71461011d575b600080fd5b610081600480360381019061007c91906107f7565b610150565b005b61009d600480360381019061009891906108d4565b610269565b6040516100aa919061092f565b60405180910390f35b6100cd60048036038101906100c8919061094a565b610298565b005b6100d7610458565b6040516100e49190610986565b60405180910390f35b6101076004803603810190610102919061094a565b61045e565b6040516101149190610aa1565b60405180910390f35b6101376004803603810190610132919061094a565b610587565b6040516101479493929190610b1c565b60405180910390f35b60008081548092919061016290610b97565b919050555060405180608001604052806000548152602001828152602001600081526020013373ffffffffffffffffffffffffffffffffffffffff1681525060016000805481526020019081526020016000206000820151816000015560208201518160010190816101d49190610deb565b506040820151816002015560608201518160030160006101000a81548173ffffffffffffffffffffffffffffffffffffffff021916908373ffffffffffffffffffffffffffffffffffffffff1602179055509050507fd11c76463c6ef857c3d51aad580e1deff54273bd94dc9f34b4e6059f9e122f8c600054823360405161025e93929190610ebd565b60405180910390a150565b60026020528160005260406000206020528060005260406000206000915091509054906101000a900460ff1681565b6000811180156102aa57506000548111155b6102e9576040517f08c379a00000000000000000000000000000000000000000000000000000000081526004016102e090610f47565b60405180910390fd5b6002600082815260200190815260200160002060003373ffffffffffffffffffffffffffffffffffffffff1673ffffffffffffffffffffffffffffffffffffffff16815260200190815260200160002060009054906101000a900460ff1615610387576040517f08c379a000000000000000000000000000000000000000000000000000000000815260040161037e90610fb3565b60405180910390fd5b6001600082815260200190815260200160002060020160008154809291906103ae90610b97565b919050555060016002600083815260200190815260200160002060003373ffffffffffffffffffffffffffffffffffffffff1673ffffffffffffffffffffffffffffffffffffffff16815260200190815260200160002060006101000a81548160ff0219169083151502179055507f030b0f8dcd86a031eddb071f91882edeac8173663ba775713b677b42b51be44b813360405161044d929190610fd3565b60405180910390a150565b60005481565b61046661065f565b600160008381526020019081526020016000206040518060800160405290816000820154815260200160018201805461049e90610c0e565b80601f01602080910402602001604051908101604052809291908181526020018280546104ca90610c0e565b80156105175780601f106104ec57610100808354040283529160200191610517565b820191906000526020600020905b8154815290600101906020018083116104fa57829003601f168201915b50505050508152602001600282015481526020016003820160009054906101000a900473ffffffffffffffffffffffffffffffffffffffff1673ffffffffffffffffffffffffffffffffffffffff1673ffffffffffffffffffffffffffffffffffffffff16815250509050919050565b60016020528060005260406000206000915090508060000154908060010180546105b090610c0e565b80601f01602080910402602001604051908101604052809291908181526020018280546105dc90610c0e565b80156106295780601f106105fe57610100808354040283529160200191610629565b820191906000526020600020905b81548152906001019060200180831161060c57829003601f168201915b5050505050908060020154908060030160009054906101000a900473ffffffffffffffffffffffffffffffffffffffff16905084565b6040518060800160405280600081526020016060815260200160008152602001600073ffffffffffffffffffffffffffffffffffffffff1681525090565b6000604051905090565b600080fd5b600080fd5b600080fd5b600080fd5b6000601f19601f8301169050919050565b7f4e487b7100000000000000000000000000000000000000000000000000000000600052604160045260246000fd5b610704826106bb565b810181811067ffffffffffffffff82111715610723576107226106cc565b5b80604052505050565b600061073661069d565b905061074282826106fb565b919050565b600067ffffffffffffffff821115610762576107616106cc565b5b61076b826106bb565b9050602081019050919050565b82818337600083830152505050565b600061079a61079584610747565b61072c565b9050828152602081018484840111156107b6576107b56106b6565b5b6107c1848285610778565b509392505050565b600082601f8301126107de576107dd6106b1565b5b81356107ee848260208601610787565b91505092915050565b60006020828403121561080d5761080c6106a7565b5b600082013567ffffffffffffffff81111561082b5761082a6106ac565b5b610837848285016107c9565b91505092915050565b6000819050919050565b61085381610840565b811461085e57600080fd5b50565b6000813590506108708161084a565b92915050565b600073ffffffffffffffffffffffffffffffffffffffff82169050919050565b60006108a182610876565b9050919050565b6108b181610896565b81146108bc57600080fd5b50565b6000813590506108ce816108a8565b92915050565b600080604083850312156108eb576108ea6106a7565b5b60006108f985828601610861565b925050602061090a858286016108bf565b9150509250929050565b60008115159050919050565b61092981610914565b82525050565b60006020820190506109446000830184610920565b92915050565b6000602082840312156109605761095f6106a7565b5b600061096e84828501610861565b91505092915050565b61098081610840565b82525050565b600060208201905061099b6000830184610977565b92915050565b6109aa81610840565b82525050565b600081519050919050565b600082825260208201905092915050565b60005b838110156109ea5780820151818401526020810190506109cf565b60008484015250505050565b6000610a01826109b0565b610a0b81856109bb565b9350610a1b8185602086016109cc565b610a24816106bb565b840191505092915050565b610a3881610896565b82525050565b6000608083016000830151610a5660008601826109a1565b5060208301518482036020860152610a6e82826109f6565b9150506040830151610a8360408601826109a1565b506060830151610a966060860182610a2f565b508091505092915050565b60006020820190508181036000830152610abb8184610a3e565b905092915050565b600082825260208201905092915050565b6000610adf826109b0565b610ae98185610ac3565b9350610af98185602086016109cc565b610b02816106bb565b840191505092915050565b610b1681610896565b82525050565b6000608082019050610b316000830187610977565b8181036020830152610b438186610ad4565b9050610b526040830185610977565b610b5f6060830184610b0d565b95945050505050565b7f4e487b7100000000000000000000000000000000000000000000000000000000600052601160045260246000fd5b6000610ba282610840565b91507fffffffffffffffffffffffffffffffffffffffffffffffffffffffffffffffff8203610bd457610bd3610b68565b5b600182019050919050565b7f4e487b7100000000000000000000000000000000000000000000000000000000600052602260045260246000fd5b60006002820490506001821680610c2657607f821691505b602082108103610c3957610c38610bdf565b5b50919050565b60008190508160005260206000209050919050565b60006020601f8301049050919050565b600082821b905092915050565b600060088302610ca17fffffffffffffffffffffffffffffffffffffffffffffffffffffffffffffffff82610c64565b610cab8683610c64565b95508019841693508086168417925050509392505050565b6000819050919050565b6000610ce8610ce3610cde84610840565b610cc3565b610840565b9050919050565b6000819050919050565b610d0283610ccd565b610d16610d0e82610cef565b848454610c71565b825550505050565b600090565b610d2b610d1e565b610d36818484610cf9565b505050565b5b81811015610d5a57610d4f600082610d23565b600181019050610d3c565b5050565b601f821115610d9f57610d7081610c3f565b610d7984610c54565b81016020851015610d88578190505b610d9c610d9485610c54565b830182610d3b565b50505b505050565b600082821c905092915050565b6000610dc260001984600802610da4565b1980831691505092915050565b6000610ddb8383610db1565b9150826002028217905092915050565b610df4826109b0565b67ffffffffffffffff811115610e0d57610e0c6106cc565b5b610e178254610c0e565b610e22828285610d5e565b600060209050601f831160018114610e555760008415610e43578287015190505b610e4d8582610dcf565b865550610eb5565b601f198416610e6386610c3f565b60005b82811015610e8b57848901518255600182019150602085019450602081019050610e66565b86831015610ea85784890151610ea4601f891682610db1565b8355505b6001600288020188555050505b505050505050565b6000606082019050610ed26000830186610977565b8181036020830152610ee48185610ad4565b9050610ef36040830184610b0d565b949350505050565b7f50726f6d707420646f6573206e6f742065786973740000000000000000000000600082015250565b6000610f31601583610ac3565b9150610f3c82610efb565b602082019050919050565b60006020820190508181036000830152610f6081610f24565b9050919050565b7f596f7520616c726561647920766f746564000000000000000000000000000000600082015250565b6000610f9d601183610ac3565b9150610fa882610f67565b602082019050919050565b60006020820190508181036000830152610fcc81610f90565b9050919050565b6000604082019050610fe86000830185610977565b610ff56020830184610b0d565b939250505056fea26469706673582212200797de71274799240157fe1a3d84747fe969123e2d91628fa49a0a5a05694ba864736f6c634300081c0033",
  "linkReferences": {},
  "deployedLinkReferences": {}
}